S00B000070776D2E73726563C5
S11300000C943C000C943E060C9465060C94590028
S11300100C9459000C9459000C9459000C945900F8
S11300200C9459000C9459000C944B070C945900EF
S11300300C9459000C9459000C94DB060C9413078F
S11300400C94B3060C948C060C9459000C9459002F
S11300500C9459000C9459000C9459000C945900B8
S11300600C9459000C9459008E0492048804820460
S11300707C04760470046A0411241FBECFEFD8E018
S1130080DEBFCDBF11E0A0E0B1E0E6EAF7E102C0D7
S113009005900D92AE3DB107D9F721E0AEEDB1E088
S11300A001C01D92A43FB207E1F70E946D020C94B7
S11300B0D10B0C94000041E063E081E00E943C0518
S11300C041E063E081E00E94E604089540E063E0DB
S11300D081E00E94E60408951092DE0117C0F0E06A
S11300E0EC5FFE4F41E0608180E00E943C05E091BE
S11300F0DE01F0E0E050FF4F40E0608180E00E94CC
S11301003C058091DE018F5F8093DE01E091DE018A
S1130110E43028F3089541E061E081E00E94E604C0
S11301208FE39FE10197F1F700C0000040E061E038
S113013081E00E94E6040895CF93C82F482F4170B0
S113014064E082E00E94E604C1FB442740F965E0D4
S113015082E00E94E604C2FB442740F966E082E0A4
S11301600E94E604C3FB442740F967E082E00E9452
S1130170E6040E948B00CF910895CF93C82F40E0EE
S113018060E081E00E94E6048C2F82958F700E94CB
S11301909C008C2F0E949C00CF91089541E064E064
S11301A082E00E943C0541E065E082E00E943C055B
S11301B041E066E082E00E943C0541E067E082E0C5
S11301C00E943C0541E061E081E00E943C0541E081
S11301D060E081E00E943C052FE785EB91E021502F
S11301E080409040E1F700C0000082E00E949C0043
S11301F088E20E94BD0020EF2A95F1F78CE00E946E
S1130200BD0080EF8A95F1F781E00E94BD008FE385
S11302109FE10197F1F700C0000086E00E94BD0055
S11302200895CF93C82F41E060E081E00E94E60486
S11302308C2F82958F700E949C008C2F0E949C00B2
S1130240CF910895CF93C42F823071F018F4813088
S113025031F018C0833069F0843081F013C08FE727
S1130260860F0E94BD000EC08FEB860F0E94BD005A
S113027009C083E9860F0E94BD0004C083ED860F88
S11302800E94BD008C2F0E941101CF9108950F93FD
S11302901F93CF93DF938C01C0E0D0E003C00E9492
S11302A011012196F801EC0FFD1F80818111F7CF18
S11302B0DF91CF911F910F9108950F931F93CF93C7
S11302C0DF938A01823071F018F4813031F00EC06E
S11302D0833079F0843091F009C08FE7860F0E9453
S11302E0BD0004C08FEB860F0E94BD00C0E0D0E0CB
S11302F00DC083E9860F0E94BD00F8CF83ED860F01
S11303000E94BD00F3CF0E9411012196F801EC0F69
S1130310FD1F80818111F7CFDF91CF911F910F9144
S113032008950F931F93CF93DF9300D000D000D094
S1130330CDB7DEB78E010F5F1F4F26E0F801119293
S11303402A95E9F79F938F9388E091E09F938F9389
S11303501F930F930E94E708C8010E9447010F9062
S11303600F900F900F900F900F9026960FB6F89461
S1130370DEBF0FBECDBFDF91CF911F910F910895C6
S113038041E00E94E604089540E00E94E6040895D6
S1130390CF93DF93C82FD62F41E00E94E6042FEFBE
S11303A081EE94E0215080409040E1F700C00000CD
S11303B040E06D2F8C2F0E94E604DF91CF910895C9
S11303C041E061E080E00E943C0541E062E080E0C1
S11303D00E943C0540E061E080E00E94E60441E0C8
S11303E062E080E00E94E604089540E061E080E07D
S11303F00E94E60440E062E080E00E94E604089582
S113040041E061E080E00E943C0541E062E080E080
S11304100E943C0541E061E080E00E94E60440E087
S113042062E080E00E94E6040895CF93C82F40E084
S1130430682F81E00E943C0560E08C2F0E94A1049B
S1130440BC01990F880B990B0E94E80722E030E069
S11304504AEF5EE30E9474080E94B007CB01CF917B
S1130460089562E082E00E949205813099F482E06E
S11304700E941502843691056CF481E00E94BD004F
S11304808FE891E00197F1F700C0000081E08093CC
S1130490E001089562E082E00E9492058130E1F477
S11304A082E00E94150284369105B4F081E00E9436
S11304B0BD0080E191E00E9447019FEF23ED80E3BE
S11304C0915020408040E1F700C0000081E00E948C
S11304D0BD0081E08093E0010895CF93DF93CDB711
S11304E0DEB764970FB6F894DEBF0FBECDBF60E0F1
S11304F080E00E94BF050E946C000E9472070E9467
S1130500CE008DE191E00E9447014DE251E061E0AF
S113051082E00E945D012FEF87EA91E6215080403E
S11305209040E1F700C0000081E00E94BD0061E05E
S113053087E00E94410440E062E081E00E943C05C3
S11305402FEF83ED90E3215080409040E1F700C00D
S1130550000061E372E080E00E94300684E391E0F1
S11305600E944701CE0101960E94980789818C342C
S113057009F054C09A819F3409F050C060E081E0D2
S11305800E949205811128C081E00E94BD0085E48B
S113059091E00E9447012FEF83ED90E321508040CA
S11305A09040E1F700C0000081E00E94BD0060E0DF
S11305B081E00E94C00183E591E00E9447012FEF92
S11305C083ED90E3215080409040E1F700C00000AB
S11305D081E00E94BD00BDCF60E081E00E949205F1
S11305E0813009F0B6CF0E94BD0040E651E063E0DF
S11305F081E00E945D0149E551E067E082E00E94EC
S11306005D012FEF83ED90E3215080409040E1F7AE
S113061000C0000081E00E94BD009BCF8C3409F033
S113062054C09A81963409F050C060E081E00E9481
S1130630920581111CC081E00E94BD0040E651E09A
S113064063E081E00E945D014EE651E067E082E0F4
S11306500E945D012FEF83ED90E321508040904094
S1130660E1F700C0000081E00E94BD0072CF60E0AD
S113067081E00E949205813009F06BCF0E94BD0099
S113068082E791E00E9447012FEF83ED90E3215030
S113069080409040E1F700C0000081E00E94BD006E
S11306A060E081E00E94C40180E891E00E9447017B
S11306B02FEF83ED90E3215080409040E1F700C09C
S11306C0000081E00E94BD0044CF8434C9F59A81C2
S11306D09F34B1F59091DF01911132C081E0809394
S11306E0DF010E94BD008DE891E00E9447012FEFD9
S11306F083ED90E3215080409040E1F700C000007A
S113070063E080E00E94C0010E94E00181E00E9459
S1130710BD008AE991E00E9447012FEF83ED90E349
S1130720215080409040E1F700C0000063E080E089
S11307300E94C4010E94F50181E00E94BD0009CF1E
S11307408434C9F59A819334B1F59091DF019923EA
S113075091F11092DF0181E00E94BD0086EA91E0F0
S11307600E9447012FEF83ED90E321508040904099
S1130770E1F700C0000081E00E94BD000E94000279
S113078064E080E00E94C00183EB91E00E94470195
S11307902FEF83ED90E3215080409040E1F700C0BB
S11307A0000064E080E00E94C4010E94F50181E041
S11307B00E94BD00CECE843509F04FC08A818434B6
S11307C009F04BC01092E00181E00E94BD008FEB64
S11307D091E00E94470140E060E082E00E94220133
S11307E082E00E9415020E94910140E263E082E0EF
S11307F00E9422012FEF81EE94E02150804090402E
S1130800E1F700C0000082E00E94150284369105E1
S1130810DCF08091E001811117C081E00E94BD00ED
S113082065E081E00E94C8010E945B008CEC91E0CD
S11308300E9447018091E001813091F70E94660097
S113084065E081E00E94C4018091E001813019F6E5
S11308500E94BD001092E0017CCE81E00E94BD00A8
S113086083ED91E00E9447012FEF83ED90E3215047
S113087080409040E1F700C0000081E00E94BD008C
S113088068CECF93DF93C82FD62F40E062E081E09B
S11308900E943C05D13049F018F0D23061F010C00C
S11308A0ECE7F0E0808180830BC0ECE7F0E080812E
S11308B08064808305C0ECE7F0E08081806C8083F5
S11308C08C2F90E08830910568F5FC01EC5CFF4FBB
S11308D00C94E108EAE7F0E080818760808322C01D
S11308E0EAE7F0E08081866080831CC0EAE7F0E0FC
S11308F080818560808316C0EAE7F0E080818460AF
S1130900808310C0EAE7F0E08081836080830AC0BE
S1130910EAE7F0E080818260808304C0EAE7F0E0E7
S113092080818083EAE7F0E0808180688083808131
S113093080628083EBE7F0E080818083DF91CF9158
S11309400895CF93DF93C82FD62F40E0682F81E01E
S11309500E943C05ECE7F0E08081807E808380810A
S11309608C2B8083DD23B1F0D13009F58081806246
S11309708083E8E7F0E08081827080838081209129
S1130980790030E0220F331F220F331F220F331F51
S1130990282B0FC0ECE7F0E0808180838091780001
S11309A02091790030E0322F2227282B02C020E04A
S11309B030E0EAE7F0E080818064808390917A00FF
S11309C096FDFCCFC901DF91CF910895442351F1E5
S11309D0413009F050C0813079F018F08230B9F01C
S11309E0089525B181E090E002C0880F991F6A95AF
S11309F0E2F7822B85B9089528B181E090E002C026
S1130A00880F991F6A95E2F7822B88B908952BB154
S1130A1081E090E002C0880F991F6A95E2F7822B6B
S1130A208BB90895813081F018F08230C9F00895AF
S1130A3025B181E090E002C0880F991F6A95E2F722
S1130A408095822385B9089528B181E090E002C0A1
S1130A50880F991F6A95E2F78095822388B90895D3
S1130A602BB181E090E002C0880F991F6A95E2F7EC
S1130A70809582238BB90895442319F0413059F1AC
S1130A800895813081F018F08230C9F0089524B1BE
S1130A9081E090E002C0880F991F6A95E2F7809583
S1130AA0822384B9089527B181E090E002C0880FC1
S1130AB0991F6A95E2F78095822387B908952BB12F
S1130AC081E090E002C0880F991F6A95E2F7809553
S1130AD082238BB90895813079F018F08230B9F00F
S1130AE0089524B181E090E002C0880F991F6A95AF
S1130AF0E2F7822B84B9089527B181E090E002C027
S1130B00880F991F6A95E2F7822B87B908952BB154
S1130B1081E090E002C0880F991F6A95E2F7822B6A
S1130B208BB90895813079F018F08230B9F020C083
S1130B3083B190E002C0959587956A95E2F781703C
S1130B408093F10115C086B190E002C09595879518
S1130B506A95E2F781708093F1010AC089B190E04F
S1130B6002C0959587956A95E2F781708093F101AB
S1130B708091F10108958FB780688FBF0895CF9356
S1130B80C62F882319F08130A9F168C040E062E0E3
S1130B9082E00E943C05C13091F018F0C230E9F0C7
S1130BA029C0E9E6F0E080818260808380818160F1
S1130BB080838DB381608DBB0E94BB051BC0E9E6B9
S1130BC0F0E080818260808380818E7F80838DB31A
S1130BD081608DBB0E94BB050DC0E9E6F0E0808119
S1130BE08D7F808380818E7F80838DB381608DBB78
S1130BF00E94BB0540E063E082E00E943C05C130F6
S1130C0091F018F0C230E9F029C0E9E6F0E0808103
S1130C10886080838081846080838DB382608DBB93
S1130C200E94BB051BC0E9E6F0E0808188608083F8
S1130C3080818B7F80838DB382608DBB0E94BB05D6
S1130C400DC0E9E6F0E08081877F808380818B7F1F
S1130C5080838DB382608DBB0E94BB05CF910895C4
S1130C60823050F4E82FF0E0EE0FFF1FEF51FE4FFB
S1130C707183608381E0089580E008951F920F924C
S1130C800FB60F9211242F933F934F935F936F935B
S1130C907F938F939F93AF93BF93EF93FF93E091D1
S1130CA0E101F091E2010995FF91EF91BF91AF91BC
S1130CB09F918F917F916F915F914F913F912F9170
S1130CC00F900FBE0F901F9018951F920F920FB6A2
S1130CD00F9211242F933F934F935F936F937F93BE
S1130CE08F939F93AF93BF93EF93FF93E091E301AF
S1130CF0F091E4010995FF91EF91BF91AF919F911C
S1130D008F917F916F915F914F913F912F910F90B0
S1130D100FBE0F901F9018951F920F920FB60F924F
S1130D2011242F933F934F935F936F937F938F93EC
S1130D309F93AF93BF93EF93FF93E091E501F091FD
S1130D40E6010995FF91EF91BF91AF919F918F912A
S1130D507F916F915F914F913F912F910F900FBEB3
S1130D600F901F9018951F920F920FB60F92112497
S1130D702F933F934F935F936F937F938F939F939F
S1130D80AF93BF93EF93FF9316BCE091EF01F09103
S1130D90F0010995FF91EF91BF91AF919F918F91D0
S1130DA07F916F915F914F913F912F910F900FBE63
S1130DB00F901F9018951F920F920FB60F92112447
S1130DC02F933F934F935F936F937F938F939F934F
S1130DD0AF93BF93EF93FF938091E9019091EA0160
S1130DE001969093EA018093E9018137924051F48E
S1130DF01092EA011092E901E091ED01F091EE0107
S1130E00099516BCFF91EF91BF91AF919F918F917E
S1130E107F916F915F914F913F912F910F900FBEF2
S1130E200F901F9018951F920F920FB60F921124D6
S1130E302F933F934F935F936F937F938F939F93DE
S1130E40AF93BF93EF93FF938091E7019091E801F3
S1130E5001969093E8018093E7018137924051F421
S1130E601092E8011092E701E091EB01F091EC019E
S1130E70099516BCFF91EF91BF91AF919F918F910E
S1130E807F916F915F914F913F912F910F900FBE82
S1130E900F901F9018951F920F920FB60F92112466
S1130EA02F933F934F935F936F937F938F939F936E
S1130EB0AF93BF93EF93FF93E091F201F091F301AD
S1130EC00995FF91EF91BF91AF919F918F917F9180
S1130ED06F915F914F913F912F910F900FBE0F90A3
S1130EE01F90189587E690E09093C5008093C40006
S1130EF0E0ECF0E080811082E2ECF0E0808182603E
S1130F008083808184608083808180838081886005
S1130F10808380818083E1ECF0E08081886180833C
S1130F2008958091C0008823E4F78091C600089555
S1130F300F931F93CF938C01C0E008C00E949107C8
S1130F40282FF801EC0FF11D8083CF5F2D30B1F70E
S1130F50F801EC0FF11D1082CF911F910F910895AC
S1130F600E94B7076894B1110C946E0808950E940A
S1130F70530888F09F5798F0B92F9927B751B0F0CC
S1130F80E1F0660F771F881F991F1AF0BA95C9F709
S1130F9014C0B13091F00E946D08B1E008950C9432
S1130FA06D08672F782F8827B85F39F0B93FCCF3E5
S1130FB0869577956795B395D9F73EF49095809586
S1130FC0709561957F4F8F4F9F4F0895E89409C0A6
S1130FD097FB3EF490958095709561957F4F8F4F68
S1130FE09F4F9923A9F0F92F96E9BB279395F6957E
S1130FF0879577956795B795F111F8CFFAF4BB0FFC
S113100011F460FF1BC06F5F7F4F8F4F9F4F16C05F
S1131010882311F096E911C0772321F09EE8872FE9
S1131020762F05C0662371F096E8862F70E060E0A5
S11310302AF09A95660F771F881FDAF7880F96951E
S1131040879597F9089597F99F6780E870E060E0C5
S113105008959FEF80EC089500240A94161617064D
S113106018060906089500240A9412161306140695
S113107005060895092E0394000C11F4882352F0F8
S1131080BB0F40F4BF2B11F460FF04C06F5F7F4FB0
S11310908F4F9F4F089557FD9058440F551F59F097
S11310A05F3F71F04795880F97FB991F61F09F3F51
S11310B079F087950895121613061406551FF2CF7A
S11310C04695F1DF08C0161617061806991FF1CFCA
S11310D086957105610508940895E894BB276627F1
S11310E07727CB0197F908950E9487080C943A0852
S11310F00E942C0838F00E94330820F0952311F048
S11311000C9423080C94290811240C946E080E9452
S11311104B0870F3959FC1F3950F50E0551F629FE4
S1131120F001729FBB27F00DB11D639FAA27F00D3C
S1131130B11DAA1F649F6627B00DA11D661F829F63
S11311402227B00DA11D621F739FB00DA11D621F48
S1131150839FA00D611D221F749F3327A00D611D65
S1131160231F849F600D211D822F762F6A2F112447
S11311709F5750409AF0F1F088234AF0EE0FFF1F7A
S1131180BB1F661F771F881F91505040A9F79E3FD1
S1131190510580F00C9423080C946E085F3FE4F32F
S11311A0983ED4F3869577956795B795F795E79527
S11311B09F5FC1F7FE2B880F911D9695879597F930
S11311C00895EE0FFF1F0590F491E02D0994AEE011
S11311D0B0E0EDEEF8E00C94A80B0D891E8986E0D2
S11311E08C831A8309838FEF9FE79E838D83AE01DF
S11311F0475E5F4F6F89788DCE0101960E94090981
S1131200EF81F885E00FF11F10822E96E4E00C9434
S1131210C40BABE0B0E0EFE0F9E00C949A0B6C0186
S11312207B018A01FC0117821682838181FFCCC174
S1131230CE0101963C01F6019381F70193FD85915E
S113124093FF81917F01882309F4BAC1853239F46F
S113125093FD859193FF81917F01853229F4B60135
S113126090E00E94000BE7CF912C212C312CFFE160
S1131270F315D8F08B3279F038F4803279F0833278
S1131280A1F4232D20611DC08D3261F0803369F4F7
S1131290232D216016C0832D8260382EE32DE46057
S11312A03E2E2AC0F32DF8601DC037FC2DC020ED62
S11312B0280F2A3040F08E32B9F436FC81C1232D38
S11312C02064322E19C036FE06C08AE0989E200D96
S11312D01124922E11C0EAE02E9E200D1124222EFC
S11312E0F32DF0623F2E08C08C3621F4832D8068E4
S11312F0382E02C0883641F4F70193FD859193FF9F
S113130081917F018111B3CF982F9F7D95549330A4
S113131028F40C5F1F4F9FE399830DC0833631F08F
S1131320833771F0833509F059C021C0F8018081F9
S113133089830E5F1F4F88248394912C530113C01B
S11313402801F2E04F0E511CF801A080B18036FE56
S113135003C0692D70E002C06FEF7FEFC5010E94EA
S1131360F50A4C018201F32DFF773F2E16C02801A8
S113137022E0420E511CF801A080B18036FE03C069
S1131380692D70E002C06FEF7FEFC5010E94EA0A89
S11313904C01F32DF0683F2E820133FC1BC0822DDB
S11313A090E088169906B0F4B60180E290E00E94BD
S11313B0000B2A94F4CFF50137FC859137FE819117
S11313C05F01B60190E00E94000B21102A9421E0F5
S11313D0821A91088114910471F7E8C0843611F0DF
S11313E0893641F5F80137FE07C060817181828139
S11313F093810C5F1F4F08C060817181072E000C20
S1131400880B990B0E5F1F4FF32DFF763F2E97FF2E
S113141009C090958095709561957F4F8F4F9F4F30
S1131420F0683F2E2AE030E0A3010E943C0B882E96
S1131430861845C0853731F4232D2F7EB22E2AE03D
S113144030E025C0932D997FB92E8F36C1F018F462
S1131450883579F0B5C0803719F0883721F0B0C0ED
S1131460E92FE061BE2EB4FE0DC0FB2DF460BF2E4B
S113147009C034FE0AC0292F2660B22E06C028E017
S113148030E005C020E130E002C020E132E0F801A4
S1131490B7FE07C060817181828193810C5F1F4F09
S11314A006C06081718180E090E00E5F1F4FA30150
S11314B00E943C0B882E8618FB2DFF773F2E36FEAC
S11314C00DC0232D2E7FA22E891458F434FE0BC098
S11314D032FC09C0832D8E7EA82E05C0B82CA32C07
S11314E003C0B82C01C0B92CA4FE0FC0FE01E80D46
S11314F0F11D8081803321F49A2D997EA92E09C093
S1131500A2FE06C0B394B39404C08A2D867809F071
S1131510B394A3FC11C0A0FE06C0B21488F4280C36
S1131520922C9B180EC0B21460F4B60180E290E0D5
S11315300E94000BB394F7CFB21418F42B1802C016
S1131540982C212CA4FE10C0B60180E390E00E94E8
S1131550000BA2FE17C0A1FC03C088E790E002C004
S113156088E590E0B6010CC08A2D867859F0A1FE7A
S113157002C08BE201C080E2A7FC8DE2B60190E0DC
S11315800E94000B891438F4B60180E390E00E94B5
S1131590000B9A94F7CF8A94F301E80DF11D808132
S11315A0B60190E00E94000B8110F5CF222009F4CF
S11315B042CEB60180E290E00E94000B2A94F6CF5E
S11315C0F6018681978102C08FEF9FEF2B96E2E1AF
S11315D00C94B60BFC010590615070400110D8F7D3
S11315E0809590958E0F9F1F0895FC016150704067
S11315F001900110D8F7809590958E0F9F1F089544
S11316000F931F93CF93DF93FB01238121FD03C02D
S11316108FEF9FEF2CC022FF16C046815781248193
S113162035814217530744F4A081B1819D012F5F96
S11316303F4F318320838C93268137812F5F3F4F27
S11316403783268314C08B01EC01FB010084F185F0
S1131650E02D0995892BE1F6D80116968D919C9180
S11316601797019617969C938E931697CE01DF9148
S1131670CF911F910F910895FA01AA27283051F1B3
S1131680203181F1E8946F936E7F6E5F7F4F8F4FAF
S11316909F4FAF4FB1E03ED0B4E03CD0670F781F0E
S11316A0891F9A1FA11D680F791F8A1F911DA11DF3
S11316B06A0F711D811D911DA11D20D009F468942C
S11316C03F912AE0269F11243019305D3193DEF6D4
S11316D0CF010895462F4770405D4193B3E00FD08A
S11316E0C9F7F6CF462F4F70405D4A3318F0495D75
S11316F031FD4052419302D0A9F7EACFB4E0A69558
S11317009795879577956795BA95C9F70097610579
S1131710710508959B01AC010A2E069457954795CF
S113172037952795BA95C9F7620F731F841F951FC4
S1131730A01D08952F923F924F925F926F927F92D5
S11317408F929F92AF92BF92CF92DF92EF92FF92CD
S11317500F931F93CF93DF93CDB7DEB7CA1BDB0B79
S11317600FB6F894DEBF0FBECDBF09942A8839881E
S113177048885F846E847D848C849B84AA84B98425
S1131780C884DF80EE80FD800C811B81AA81B98131
S1131790CE0FD11D0FB6F894DEBF0FBECDBFED0145
S10917A00895F894FFCF48
S11317A60405060700010203256900307825780040
S11317B666697265206973206F7665720077656C59
S11317C6636F6D6520746F20694545450048454C37
S11317D6504552007768617420646F20796F7520D4
S11317E66E656564006F70656E696E67206C696707
S11317F66874006C69676874206F70656E65640050
S11318066C6967687420616C7265616479006F66DF
S11318166600636C6F73696E67206C696768740031
S11318266C6967687420636C6F736564004F7065D8
S11318366E696E6720446F6F7200446F6F72204F3B
S113184670656E656400436C6F73696E6720446FE0
S11318566F7200446F6F7220636C6F7365640074FB
S1131866656D70657261747572653D006669726551
S11118762121004E6F742056616C69640000DD
S9030000FC
