:100000000C9434000C940E010C9435010C945100A6
:100010000C9451000C9451000C9451000C9451001C
:100020000C9451000C9451000C94F8010C94510064
:100030000C9451000C9451000C9484010C94BE015A
:100040000C945C010C9451000C9451000C945100E0
:100050000C9451000C9451000C9451000C945100DC
:100060000C9451000C94510011241FBECFEFD8E026
:10007000DEBFCDBF11E0A0E0B1E0EEE8F4E002C0E9
:1000800005900D92A030B107D9F721E0A0E0B1E0D2
:1000900001C01D92A131B207E1F70E945C000C94EF
:1000A00045020C94000041E00C94740040E00C9474
:1000B000740041E00C94C1000E941F0260E081E0E6
:1000C0000E9459000E943E0280930001823329F46D
:1000D00060E081E00E945600F5CF833399F760E03D
:1000E00081E00E945300EECF442321F1413009F01A
:1000F00047C0813069F018F0823099F0089525B139
:1001000081E090E001C0880F6A95EAF7822B21C058
:1001100028B181E090E001C0880F6A95EAF7822B50
:1001200023C02BB181E090E001C0880F6A95EAF707
:10013000822B25C0813079F018F08230B9F0089513
:1001400025B181E090E001C0880F6A95EAF78095BB
:10015000822385B9089528B181E090E001C0880F1D
:100160006A95EAF78095822388B908952BB181E0DA
:1001700090E001C0880F6A95EAF7809582238BB9D9
:100180000895442319F0413029F10895813071F028
:1001900018F08230A9F0089524B181E090E001C008
:1001A000880F6A95EAF78095822322C027B181E003
:1001B00090E001C0880F6A95EAF78095822322C0FB
:1001C0002BB181E090E001C0880F6A95EAF7809535
:1001D000822322C0813071F018F08230A9F0089596
:1001E00024B181E090E001C0880F6A95EAF7822B84
:1001F00084B9089527B181E090E001C0880F6A9525
:10020000EAF7822B87B908952BB181E090E001C015
:10021000880F6A95EAF7822B8BB908951F920F9287
:100220000FB60F9211242F933F934F935F936F93C9
:100230007F938F939F93AF93BF93EF93FF93E0913F
:100240000101F09102010995FF91EF91BF91AF91EA
:100250009F918F917F916F915F914F913F912F91DE
:100260000F900FBE0F901F9018951F920F920FB610
:100270000F9211242F933F934F935F936F937F932C
:100280008F939F93AF93BF93EF93FF93E0910301FD
:10029000F09104010995FF91EF91BF91AF919F916A
:1002A0008F917F916F915F914F913F912F910F901F
:1002B0000FBE0F901F9018951F920F920FB60F92BE
:1002C00011242F933F934F935F936F937F938F935B
:1002D0009F93AF93BF93EF93FF9316BCE0910D01F3
:1002E000F0910E010995FF91EF91BF91AF919F9110
:1002F0008F917F916F915F914F913F912F910F90CF
:100300000FBE0F901F9018951F920F920FB60F926D
:1003100011242F933F934F935F936F937F938F930A
:100320009F93AF93BF93EF93FF93809107019091B9
:1003300008010196813722E0920729F09093080185
:10034000809307010AC01092080110920701E09102
:100350000B01F0910C01099516BCFF91EF91BF9133
:10036000AF919F918F917F916F915F914F913F914D
:100370002F910F900FBE0F901F9018951F920F9204
:100380000FB60F9211242F933F934F935F936F9368
:100390007F938F939F93AF93BF93EF93FF9380913E
:1003A0000501909106010196813722E0920729F01C
:1003B00090930601809305010AC0109206011092E5
:1003C0000501E0910901F0910A01099516BCFF9120
:1003D000EF91BF91AF919F918F917F916F915F91BD
:1003E0004F913F912F910F900FBE0F901F90189536
:1003F0001F920F920FB60F9211242F933F934F939A
:100400005F936F937F938F939F93AF93BF93EF937C
:10041000FF93E0910F01F09110010995FF91EF9189
:10042000BF91AF919F918F917F916F915F914F910C
:100430003F912F910F900FBE0F901F90189587E658
:1004400090E09093C5008093C400E0ECF0E08081E0
:100450001082E2ECF0E080818260808380818460A1
:100460008083808180838081886080838081808395
:10047000E1ECF0E080818861808308958091C00084
:0E04800087FFFCCF8091C6000895F894FFCF4F
:00000001FF
