:100000000C9434000C948F010C94B6010C945100A4
:100010000C9451000C9451000C9451000C9451001C
:100020000C9451000C9451000C9479020C945100E2
:100030000C9451000C9451000C9405020C943F0256
:100040000C94DD010C9451000C9451000C9451005F
:100050000C9451000C9451000C9451000C945100DC
:100060000C9451000C94510011241FBECFEFD8E026
:10007000DEBFCDBF11E0A0E0B1E0E0E9F5E002C0F5
:1000800005900D92A831B107D9F721E0A8E1B1E0C0
:1000900001C01D92AC32B207E1F70E94D4000C946B
:1000A000C6020C94000010921901E0911901E4308D
:1000B000C0F4F0E0EC5EFE4F41E0608180E00E9421
:1000C0002C01E0911901F0E0E05FFE4F40E060811B
:1000D00080E00E942C01809119018F5F80931901AB
:1000E000E4CF0895CF93DF93009709F459C0EC0152
:1000F00010921901E0911901E43008F04FC0F0E0CE
:10010000EC5EFE4F41E0608180E00E94DF001092D3
:100110001801E0911801E43088F5F0E0E05FFE4F4F
:1001200040E0608180E00E94DF00E0911801F0E093
:10013000E05FFE4F608180E00E9479018823C1F07A
:100140002FEF89EF90E0215080409040E1F700C010
:100150000000E09119018091180124E0E29FF00174
:100160001124E050FF4FE80FF11D8081888306C005
:10017000809118018F5F80931801CBCFE091190116
:10018000F0E0EC5EFE4F41E0608180E00E94DF0025
:10019000809119018F5F80931901ACCF81E001C07C
:1001A00080E0DF91CF9108950E94A0020E94530049
:1001B0008AE191E00E9472000E94BF02F9CF4423BD
:1001C00021F1413009F047C0813069F018F08230E8
:1001D00099F0089525B181E090E001C0880F6A95FB
:1001E000EAF7822B21C028B181E090E001C0880F9E
:1001F0006A95EAF7822B23C02BB181E090E001C021
:10020000880F6A95EAF7822B25C0813079F018F0C3
:100210008230B9F0089525B181E090E001C0880FE7
:100220006A95EAF78095822385B9089528B181E01F
:1002300090E001C0880F6A95EAF78095822388B91B
:1002400008952BB181E090E001C0880F6A95EAF72C
:10025000809582238BB90895442319F0413029F108
:100260000895813071F018F08230A9F0089524B11A
:1002700081E090E001C0880F6A95EAF780958223BB
:1002800022C027B181E090E001C0880F6A95EAF7AB
:100290008095822322C02BB181E090E001C0880FBD
:1002A0006A95EAF78095822322C0813071F018F0B8
:1002B0008230A9F0089524B181E090E001C0880F58
:1002C0006A95EAF7822B84B9089527B181E090E01E
:1002D00001C0880F6A95EAF7822B87B908952BB180
:1002E00081E090E001C0880F6A95EAF7822B8BB914
:1002F0000895813039F020F0823071F489B103C063
:1003000083B101C086B190E002C0959587956A954A
:10031000E2F78170809329018091290108951F924D
:100320000F920FB60F9211242F933F934F935F9329
:100330006F937F938F939F93AF93BF93EF93FF93AD
:10034000E0911B01F0911C010995FF91EF91BF9184
:10035000AF919F918F917F916F915F914F913F915D
:100360002F910F900FBE0F901F9018951F920F9214
:100370000FB60F9211242F933F934F935F936F9378
:100380007F938F939F93AF93BF93EF93FF93E091EE
:100390001D01F0911E010995FF91EF91BF91AF9161
:1003A0009F918F917F916F915F914F913F912F918D
:1003B0000F900FBE0F901F9018951F920F920FB6BF
:1003C0000F9211242F933F934F935F936F937F93DB
:1003D0008F939F93AF93BF93EF93FF9316BCE091DE
:1003E0002701F09128010995FF91EF91BF91AF91FD
:1003F0009F918F917F916F915F914F913F912F913D
:100400000F900FBE0F901F9018951F920F920FB66E
:100410000F9211242F933F934F935F936F937F938A
:100420008F939F93AF93BF93EF93FF93809121019D
:10043000909122010196813722E0920729F0909352
:100440002201809321010AC0109222011092210101
:10045000E0912501F0912601099516BCFF91EF91DD
:10046000BF91AF919F918F917F916F915F914F91CC
:100470003F912F910F900FBE0F901F9018951F92D4
:100480000F920FB60F9211242F933F934F935F93C8
:100490006F937F938F939F93AF93BF93EF93FF934C
:1004A00080911F01909120010196813722E09207EF
:1004B00029F09093200180931F010AC0109220011F
:1004C00010921F01E0912301F0912401099516BCBF
:1004D000FF91EF91BF91AF919F918F917F916F911C
:1004E0005F914F913F912F910F900FBE0F901F90F2
:1004F00018951F920F920FB60F9211242F933F93CE
:100500004F935F936F937F938F939F93AF93BF931B
:10051000EF93FF93E0912A01F0912B010995FF9150
:10052000EF91BF91AF919F918F917F916F915F916B
:100530004F913F912F910F900FBE0F901F901895E4
:1005400087E690E09093C5008093C400E0ECF0E073
:1005500080811082E2ECF0E0808182608083808183
:1005600084608083808180838081886080838081B3
:100570008083E1ECF0E08081886180830895909130
:10058000C00095FFFCCF8093C6000895F894FFCF7C
:10059000010203040506070801022B2D2A2F253D21
:0805A000040506070001020337
:00000001FF
