:100000000C9434000C9457010C947E010C94510014
:100010000C9451000C9451000C9451000C9451001C
:100020000C9451000C9451000C94A3020C945100B8
:100030000C9451000C9451000C9433020C946B02FC
:100040000C940B020C94E4010C9451000C9451009C
:100050000C9451000C9451000C9451000C945100DC
:100060000C9451000C94510011241FBECFEFD8E026
:10007000DEBFCDBF11E0A0E0B1E0E8E9F5E002C0ED
:1000800005900D92A030B107D9F721E0A0E0B1E0D2
:1000900001C01D92A431B207E1F70E9464000C94E4
:1000A000CA020C94000041E00E947E00089541E0E5
:1000B0000E94D400089560E081E00E94570060E053
:1000C00081E00E945300089565E081E00E9457009E
:1000D0000E94A5010E9453018BE590E00E94D5018A
:1000E0008AE00E94DA010E94DC01809300018530E1
:1000F000B9F765E081E00E945300F2CF442351F14B
:10010000413009F050C0813079F018F08230B9F0F8
:10011000089525B181E090E002C0880F991F6A958B
:10012000E2F7822B85B9089528B181E090E002C002
:10013000880F991F6A95E2F7822B88B908952BB131
:1001400081E090E002C0880F991F6A95E2F7822B48
:100150008BB90895813081F018F08230C9F008958C
:1001600025B181E090E002C0880F991F6A95E2F7FF
:100170008095822385B9089528B181E090E002C07E
:10018000880F991F6A95E2F78095822388B90895B0
:100190002BB181E090E002C0880F991F6A95E2F7C9
:1001A000809582238BB90895442319F0413059F189
:1001B0000895813081F018F08230C9F0089524B19B
:1001C00081E090E002C0880F991F6A95E2F7809560
:1001D000822384B9089527B181E090E002C0880F9E
:1001E000991F6A95E2F78095822387B908952BB10C
:1001F00081E090E002C0880F991F6A95E2F7809530
:1002000082238BB90895813079F018F08230B9F0EB
:10021000089524B181E090E002C0880F991F6A958B
:10022000E2F7822B84B9089527B181E090E002C003
:10023000880F991F6A95E2F7822B87B908952BB131
:1002400081E090E002C0880F991F6A95E2F7822B47
:100250008BB90895813079F018F08230B9F020C060
:1002600083B190E002C0959587956A95E2F7817019
:100270008093110115C086B190E002C095958795D5
:100280006A95E2F78170809311010AC089B190E00C
:1002900002C0959587956A95E2F781708093110168
:1002A0008091110108958FB780688FBF08951F92C4
:1002B0000F920FB60F9211242F933F934F935F939A
:1002C0006F937F938F939F93AF93BF93EF93FF931E
:1002D000E0910101F09102010995FF91EF91BF9129
:1002E000AF919F918F917F916F915F914F913F91CE
:1002F0002F910F900FBE0F901F9018951F920F9285
:100300000FB60F9211242F933F934F935F936F93E8
:100310007F938F939F93AF93BF93EF93FF93E0915E
:100320000301F09104010995FF91EF91BF91AF9105
:100330009F918F917F916F915F914F913F912F91FD
:100340000F900FBE0F901F90189541E063E080E082
:100350000E94D40040E064E080E00E94D40041E0CC
:1003600065E080E00E94D40041E062E080E00E940D
:10037000D4008CB580628CBD8CB580618CBD8CB591
:10038000877F8CBD8CB584608CBD8CB581608CBD45
:100390008CB58D7F8CBD8DB58E7F8DBD8CB5806805
:1003A0008CBD8CB580648CBD0895909306018093BC
:1003B000050108958EBD08958DB567E00E942A015C
:1003C0008823D1F38EB508951F920F920FB60F9226
:1003D00011242F933F934F935F936F937F938F934A
:1003E0009F93AF93BF93EF93FF93E0910501F0913B
:1003F00006010995FF91EF91BF91AF919F918F9168
:100400007F916F915F914F913F912F910F900FBE10
:100410000F901F9018951F920F920FB60F921124F4
:100420002F933F934F935F936F937F938F939F93FC
:10043000AF93BF93EF93FF9316BCE0910F01F09140
:1004400010010995FF91EF91BF91AF919F918F910D
:100450007F916F915F914F913F912F910F900FBEC0
:100460000F901F9018951F920F920FB60F921124A4
:100470002F933F934F935F936F937F938F939F93AC
:10048000AF93BF93EF93FF938091090190910A017D
:10049000019690930A01809309018137924051F4AB
:1004A00010920A0110920901E0910D01F0910E01E4
:1004B000099516BCFF91EF91BF91AF919F918F91DC
:1004C0007F916F915F914F913F912F910F900FBE50
:1004D0000F901F9018951F920F920FB60F92112434
:1004E0002F933F934F935F936F937F938F939F933C
:1004F000AF93BF93EF93FF93809107019091080111
:10050000019690930801809307018137924051F43E
:100510001092080110920701E0910B01F0910C017B
:10052000099516BCFF91EF91BF91AF919F918F916B
:100530007F916F915F914F913F912F910F900FBEDF
:100540000F901F9018951F920F920FB60F921124C3
:100550002F933F934F935F936F937F938F939F93CB
:10056000AF93BF93EF93FF93E0911201F0911301CA
:100570000995FF91EF91BF91AF919F918F917F91DD
:100580006F915F914F913F912F910F900FBE0F9000
:080590001F901895F894FFCFAD
:00000001FF
