:100000000C9434000C947D030C94A4030C945100C4
:100010000C9451000C9451000C9451000C9451001C
:100020000C9451000C9451000C948E040C945100CB
:100030000C9451000C9451000C941A040C94540428
:100040000C94F2030C94CB030C9451000C945100CB
:100050000C9451000C9451000C9451000C945100DC
:100060000C9451000C94510011241FBECFEFD8E026
:10007000DEBFCDBF11E0A0E0B1E0EEE6F9E002C0E6
:1000800005900D92AA3BB107D9F721E0AAEBB1E0A8
:1000900001C01D92AF3CB207E1F70E94B7010C947A
:1000A000B5040C9400001092BB01E091BB01E43058
:1000B000C0F4F0E0EC5EFE4F41E0608182E00E941F
:1000C0000603E091BB01F0E0E05FFE4F40E060819D
:1000D00082E00E9406038091BB018F5F8093BB0189
:1000E000E4CF0895CF93DF93009709F45CC0EC014F
:1000F0008FEF88831092BB01E091BB01E43008F0E0
:1001000050C0F0E0EC5EFE4F41E0608182E00E9472
:10011000B9021092BA01E091BA01E43090F5F0E032
:10012000E05FFE4F608182E00E945303882319F153
:100130002FEF89EF90E0215080409040E1F700C020
:100140000000E091BA01F0E0E05FFE4F608182E0E4
:100150000E9453038111F5CFE091BB018091BA0158
:1001600024E0E29FF0011124E050FF4FE80FF11D61
:100170008081888306C08091BA018F5F8093BA0125
:10018000CACFE091BB01F0E0EC5EFE4F40E0608141
:1001900082E00E94B9028091BB018F5F8093BB0116
:1001A000ABCF81E001C080E0DF91CF91089541E0C5
:1001B00065E081E00E94B9028FE39FE10197F1F7CA
:1001C00000C0000040E065E081E00C94B902CF93EC
:1001D000C82F482F417060E081E00E94B902C1FB46
:1001E000442740F961E081E00E94B902C2FB442744
:1001F00040F962E081E00E94B902C3FB442740F964
:1002000063E081E00E94B902CF910C94D700CF93B4
:10021000C82F40E064E081E00E94B9028C2F8295F3
:100220008F700E94E7008C2FCF910C94E70041E083
:1002300060E081E00E94060341E061E081E00E940D
:10024000060341E062E081E00E94060341E063E0D2
:1002500081E00E94060341E065E081E00E94060320
:1002600041E064E081E00E9406032FE785EB91E026
:10027000215080409040E1F700C0000082E00E94E1
:10028000E70088E20E94070120EF2A95F1F78CE051
:100290000E94070180EF8A95F1F781E00E94070133
:1002A0008FE39FE10197F1F700C0000086E00C9416
:1002B0000701CF93C82F41E064E081E00E94B902BA
:1002C0008C2F82958F700E94E7008C2FCF910C9419
:1002D000E700CF93982F862FC42F923059F020F447
:1002E000913069F4815809C0933031F0943039F479
:1002F0008D5203C0815401C08D560E9407018C2F7E
:10030000CF910C945901CF93DF93EC01899188230D
:1003100019F00E945901FACFDF91CF9108950F9300
:100320001F93CF93DF93982F862F8A01923059F035
:1003300020F4913069F4815809C0933031F0943041
:1003400039F48D5203C0815401C08D560E940701BB
:10035000E8018991882319F00E945901FACFDF91B1
:10036000CF911F910F91089541E00C940603CF9314
:10037000DF931F92CDB7DEB78FEF89830E941701FD
:100380000E9453000E94690360E080E00E94B40173
:1003900061E080E00E94B40161E080E00E94B4016D
:1003A00080E090E00E9477038F3FA9F448E151E09C
:1003B00061E081E00E948F0148E251E061E082E06B
:1003C0000E948F018FE39CE90197F1F700C00000C4
:1003D00081E00E94070105E011E0CE0101960E9434
:1003E0007200153060F481E090E00E9477038F3F47
:1003F00031F443E351E061E081E00E948F018981A3
:100400008F3F09F4B3C0153008F0B0C0E12EF12CD5
:10041000C7010E9477038F3FD1F5B70189810E9400
:100420006D034981612F82E00E9469018FE39CE99D
:100430000197F1F700C000004AE2612F82E00E94BC
:1004400069011F5F153019F5CE0101960E947200F7
:1004500081E00E94070182E491E00E9483018FE322
:100460009CE90197F1F700C0000081E00E940701BC
:10047000093060F4802F90E00E9477038F3F31F4C1
:1004800043E551E061E081E00E948F0115E0898140
:100490008F3F91F1093080F5153071F5602F70E0D4
:1004A0000E946D038CEFF82EF00E49816F2D82E0D3
:1004B0000E9469018FE39CE90197F1F700C00000F9
:1004C0004AE26F2D82E00E9469010F5F0930A1F4BA
:1004D000CE0101960E94720081E00E94070182E62F
:1004E00091E00E9483018FE39CE90197F1F700C03E
:1004F000000081E00E94070160E070E081E00E945E
:100500006D03802F90E00E9477038F3F09F465CF41
:1005100043E751E061E081E00E948F0146E851E04D
:1005200061E082E00E948F014EE851E06AE082E0E3
:100530000E948F0189818133A9F481E00E94070123
:1005400046E951E065E081E00E948F0147EA51E011
:1005500065E082E00E948F018FE39CE90197F1F74B
:1005600000C0000081E00E94070137CF153021F65E
:100570007FCF442321F1413009F047C0813069F039
:1005800018F0823099F0089525B181E090E001C023
:10059000880F6A95EAF7822B21C028B181E090E0AC
:1005A00001C0880F6A95EAF7822B23C02BB181E046
:1005B00090E001C0880F6A95EAF7822B25C0813050
:1005C00079F018F08230B9F0089525B181E090E01B
:1005D00001C0880F6A95EAF78095822385B908954E
:1005E00028B181E090E001C0880F6A95EAF7809514
:1005F000822388B908952BB181E090E001C0880F73
:100600006A95EAF7809582238BB90895442319F0FF
:10061000413029F10895813071F018F08230A9F04D
:10062000089524B181E090E001C0880F6A95EAF74F
:100630008095822322C027B181E090E001C0880F1D
:100640006A95EAF78095822322C02BB181E090E081
:1006500001C0880F6A95EAF78095822322C0813015
:1006600071F018F08230A9F0089524B181E090E093
:1006700001C0880F6A95EAF7822B84B9089527B1E3
:1006800081E090E001C0880F6A95EAF7822B87B974
:1006900008952BB181E090E001C0880F6A95EAF7D8
:1006A000822B8BB90895813039F020F0823071F4BB
:1006B00089B103C083B101C086B190E002C09595B5
:1006C00087956A95E2F781708093CC018091CC0187
:1006D0000895FD98FC98FB980895F999FECF07B608
:1006E00000FCFDCF61BD80BDFA9AF99A0895F99991
:1006F000FECF81BDF89A80B508951F920F920FB674
:100700000F9211242F933F934F935F936F937F9397
:100710008F939F93AF93BF93EF93FF93E091BC01AF
:10072000F091BD010995FF91EF91BF91AF919F911C
:100730008F917F916F915F914F913F912F910F908A
:100740000FBE0F901F9018951F920F920FB60F9229
:1007500011242F933F934F935F936F937F938F93C6
:100760009F93AF93BF93EF93FF93E091BE01F091FE
:10077000BF010995FF91EF91BF91AF919F918F912B
:100780007F916F915F914F913F912F910F900FBE8D
:100790000F901F9018951F920F920FB60F92112471
:1007A0002F933F934F935F936F937F938F939F9379
:1007B000AF93BF93EF93FF93E091C001F091C1011C
:1007C0000995FF91EF91BF91AF919F918F917F918B
:1007D0006F915F914F913F912F910F900FBE0F90AE
:1007E0001F9018951F920F920FB60F9211242F93FE
:1007F0003F934F935F936F937F938F939F93AF93A9
:10080000BF93EF93FF9316BCE091CA01F091CB0127
:100810000995FF91EF91BF91AF919F918F917F913A
:100820006F915F914F913F912F910F900FBE0F905D
:100830001F9018951F920F920FB60F9211242F93AD
:100840003F934F935F936F937F938F939F93AF9358
:10085000BF93EF93FF938091C4019091C5010196DE
:10086000813722E0920729F09093C5018093C4015B
:100870000AC01092C5011092C401E091C801F09124
:10088000C901099516BCFF91EF91BF91AF919F915E
:100890008F917F916F915F914F913F912F910F9029
:1008A0000FBE0F901F9018951F920F920FB60F92C8
:1008B00011242F933F934F935F936F937F938F9365
:1008C0009F93AF93BF93EF93FF938091C201909159
:1008D000C3010196813722E0920729F09093C3016A
:1008E0008093C2010AC01092C3011092C201E0912C
:1008F000C601F091C701099516BCFF91EF91BF9118
:10090000AF919F918F917F916F915F914F913F91A7
:100910002F910F900FBE0F901F9018951F920F925E
:100920000FB60F9211242F933F934F935F936F93C2
:100930007F938F939F93AF93BF93EF93FF93E09138
:10094000CD01F091CE010995FF91EF91BF91AF914B
:100950009F918F917F916F915F914F913F912F91D7
:0E0960000F900FBE0F901F901895F894FFCFC8
:10096E003738392F3435362A3132332D6F303D2B0F
:10097E00040506070001020377656C636F6D652041
:10098E00666F72207468650066697273742074698C
:10099E006D65007365742061646D696E207061739E
:1009AE00730061646D696E2070617373207361767C
:1009BE006564007365742067756573742070617368
:1009CE00730067756573742070617373207361763D
:1009DE00656400706C656173652063686F6F736525
:1009EE00206D6F646500312D61646D696E00322D6E
:1009FE006775657374002020706C65617365206582
:100A0E006E746572202000202041646D696E207026
:0A0A1E00617373776F7264200000AB
:00000001FF
